{
  "contractName": "Crud",
  "abi": [
    {
      "constant": true,
      "inputs": [],
      "name": "nextId",
      "outputs": [
        {
          "internalType": "uint256",
          "name": "",
          "type": "uint256"
        }
      ],
      "payable": false,
      "stateMutability": "view",
      "type": "function"
    },
    {
      "constant": true,
      "inputs": [
        {
          "internalType": "uint256",
          "name": "",
          "type": "uint256"
        }
      ],
      "name": "pets",
      "outputs": [
        {
          "internalType": "uint256",
          "name": "Id",
          "type": "uint256"
        },
        {
          "internalType": "string",
          "name": "name",
          "type": "string"
        },
        {
          "internalType": "string",
          "name": "picture",
          "type": "string"
        },
        {
          "internalType": "string",
          "name": "breed",
          "type": "string"
        },
        {
          "internalType": "string",
          "name": "location",
          "type": "string"
        },
        {
          "internalType": "address",
          "name": "seller",
          "type": "address"
        },
        {
          "internalType": "address",
          "name": "owner",
          "type": "address"
        }
      ],
      "payable": false,
      "stateMutability": "view",
      "type": "function"
    },
    {
      "constant": true,
      "inputs": [
        {
          "internalType": "uint256",
          "name": "",
          "type": "uint256"
        }
      ],
      "name": "purchasers",
      "outputs": [
        {
          "internalType": "address",
          "name": "",
          "type": "address"
        }
      ],
      "payable": false,
      "stateMutability": "view",
      "type": "function"
    },
    {
      "constant": false,
      "inputs": [
        {
          "internalType": "string",
          "name": "name",
          "type": "string"
        },
        {
          "internalType": "string",
          "name": "picture",
          "type": "string"
        },
        {
          "internalType": "string",
          "name": "breed",
          "type": "string"
        },
        {
          "internalType": "string",
          "name": "location",
          "type": "string"
        }
      ],
      "name": "createPetListing",
      "outputs": [],
      "payable": false,
      "stateMutability": "nonpayable",
      "type": "function"
    },
    {
      "constant": true,
      "inputs": [
        {
          "internalType": "uint256",
          "name": "id",
          "type": "uint256"
        }
      ],
      "name": "getPet",
      "outputs": [
        {
          "internalType": "uint256",
          "name": "",
          "type": "uint256"
        },
        {
          "internalType": "string",
          "name": "",
          "type": "string"
        },
        {
          "internalType": "string",
          "name": "",
          "type": "string"
        },
        {
          "internalType": "string",
          "name": "",
          "type": "string"
        },
        {
          "internalType": "string",
          "name": "",
          "type": "string"
        },
        {
          "internalType": "address",
          "name": "",
          "type": "address"
        },
        {
          "internalType": "address",
          "name": "",
          "type": "address"
        }
      ],
      "payable": false,
      "stateMutability": "view",
      "type": "function"
    },
    {
      "constant": true,
      "inputs": [],
      "name": "getPets",
      "outputs": [
        {
          "components": [
            {
              "internalType": "uint256",
              "name": "Id",
              "type": "uint256"
            },
            {
              "internalType": "string",
              "name": "name",
              "type": "string"
            },
            {
              "internalType": "string",
              "name": "picture",
              "type": "string"
            },
            {
              "internalType": "string",
              "name": "breed",
              "type": "string"
            },
            {
              "internalType": "string",
              "name": "location",
              "type": "string"
            },
            {
              "internalType": "address",
              "name": "seller",
              "type": "address"
            },
            {
              "internalType": "address",
              "name": "owner",
              "type": "address"
            }
          ],
          "internalType": "struct Crud.Pet[]",
          "name": "",
          "type": "tuple[]"
        }
      ],
      "payable": false,
      "stateMutability": "view",
      "type": "function"
    },
    {
      "constant": true,
      "inputs": [],
      "name": "getPetsLength",
      "outputs": [
        {
          "internalType": "uint256",
          "name": "",
          "type": "uint256"
        }
      ],
      "payable": false,
      "stateMutability": "view",
      "type": "function"
    },
    {
      "constant": false,
      "inputs": [
        {
          "internalType": "uint256",
          "name": "id",
          "type": "uint256"
        },
        {
          "internalType": "address",
          "name": "owner",
          "type": "address"
        }
      ],
      "name": "deletePet",
      "outputs": [
        {
          "internalType": "string",
          "name": "",
          "type": "string"
        }
      ],
      "payable": false,
      "stateMutability": "nonpayable",
      "type": "function"
    },
    {
      "constant": false,
      "inputs": [
        {
          "internalType": "uint256",
          "name": "id",
          "type": "uint256"
        },
        {
          "internalType": "string",
          "name": "name",
          "type": "string"
        },
        {
          "internalType": "string",
          "name": "picture",
          "type": "string"
        },
        {
          "internalType": "string",
          "name": "breed",
          "type": "string"
        },
        {
          "internalType": "string",
          "name": "location",
          "type": "string"
        },
        {
          "internalType": "address",
          "name": "owner",
          "type": "address"
        }
      ],
      "name": "updatePet",
      "outputs": [
        {
          "internalType": "uint256",
          "name": "",
          "type": "uint256"
        },
        {
          "internalType": "string",
          "name": "",
          "type": "string"
        }
      ],
      "payable": false,
      "stateMutability": "nonpayable",
      "type": "function"
    },
    {
      "constant": false,
      "inputs": [
        {
          "internalType": "uint256",
          "name": "id",
          "type": "uint256"
        },
        {
          "internalType": "address",
          "name": "owner",
          "type": "address"
        },
        {
          "internalType": "address",
          "name": "newOwner",
          "type": "address"
        }
      ],
      "name": "TransferPet",
      "outputs": [
        {
          "internalType": "uint256",
          "name": "",
          "type": "uint256"
        },
        {
          "internalType": "string",
          "name": "",
          "type": "string"
        }
      ],
      "payable": false,
      "stateMutability": "nonpayable",
      "type": "function"
    },
    {
      "constant": false,
      "inputs": [
        {
          "internalType": "uint256",
          "name": "petId",
          "type": "uint256"
        }
      ],
      "name": "purchase",
      "outputs": [
        {
          "internalType": "uint256",
          "name": "",
          "type": "uint256"
        }
      ],
      "payable": false,
      "stateMutability": "nonpayable",
      "type": "function"
    },
    {
      "constant": true,
      "inputs": [],
      "name": "getPurchasers",
      "outputs": [
        {
          "internalType": "address[20]",
          "name": "",
          "type": "address[20]"
        }
      ],
      "payable": false,
      "stateMutability": "view",
      "type": "function"
    }
  ],
  "bytecode": "0x6080604052600160005534801561001557600080fd5b50612450806100256000396000f3fe608060405234801561001057600080fd5b50600436106100b45760003560e01c8063767b53fb11610071578063767b53fb146101aa5780638f8fb47a146101c6578063af8ce893146101e4578063cfb38dd914610215578063cfb869bf14610245578063efef39a11461027b576100b4565b806302a89d3b146100b95780630409eb85146100ea57806312923b651461010857806359d551941461013857806361b8ce8c1461016e5780636d71ad381461018c575b600080fd5b6100d360048036036100ce9190810190611be4565b6102ab565b6040516100e1929190612113565b60405180910390f35b6100f2610560565b6040516100ff9190612038565b60405180910390f35b610122600480360361011d9190810190611b30565b6105e1565b60405161012f919061201d565b60405180910390f35b610152600480360361014d9190810190611b30565b610614565b6040516101659796959493929190612143565b60405180910390f35b610176610a45565b60405161018391906120f8565b60405180910390f35b610194610a4b565b6040516101a19190612054565b60405180910390f35b6101c460048036036101bf9190810190611a6d565b610de8565b005b6101ce610fa8565b6040516101db91906120f8565b60405180910390f35b6101fe60048036036101f99190810190611b95565b610fb5565b60405161020c929190612113565b60405180910390f35b61022f600480360361022a9190810190611b59565b611263565b60405161023c9190612076565b60405180910390f35b61025f600480360361025a9190810190611b30565b611454565b60405161027297969594939291906121ce565b60405180910390f35b61029560048036036102909190810190611b30565b611743565b6040516102a291906120f8565b60405180910390f35b6000606060008090505b60018054905081101561051957600181815481106102cf57fe5b906000526020600020906007020160000154891480156103585750600181815481106102f757fe5b906000526020600020906007020160060160009054906101000a900473ffffffffffffffffffffffffffffffffffffffff1673ffffffffffffffffffffffffffffffffffffffff168473ffffffffffffffffffffffffffffffffffffffff16145b1561050c57876001828154811061036b57fe5b9060005260206000209060070201600101908051906020019061038f92919061185f565b50866001828154811061039e57fe5b906000526020600020906007020160020190805190602001906103c292919061185f565b5085600182815481106103d157fe5b906000526020600020906007020160030190805190602001906103f592919061185f565b50846001828154811061040457fe5b9060005260206000209060070201600401908051906020019061042892919061185f565b506001818154811061043657fe5b9060005260206000209060070201600001546001828154811061045557fe5b9060005260206000209060070201600101808054600181600116156101000203166002900480601f0160208091040260200160405190810160405280929190818152602001828054600181600116156101000203166002900480156104fb5780601f106104d0576101008083540402835291602001916104fb565b820191906000526020600020905b8154815290600101906020018083116104de57829003601f168201915b505050505090509250925050610555565b80806001019150506102b5565b506040517f08c379a000000000000000000000000000000000000000000000000000000000815260040161054c906120b8565b60405180910390fd5b965096945050505050565b6105686118df565b60026014806020026040519081016040528092919082601480156105d7576020028201915b8160009054906101000a900473ffffffffffffffffffffffffffffffffffffffff1673ffffffffffffffffffffffffffffffffffffffff168152602001906001019080831161058d575b5050505050905090565b600281601481106105ee57fe5b016000915054906101000a900473ffffffffffffffffffffffffffffffffffffffff1681565b600060608060608060008060008090505b6001805490508110156109fe576001818154811061063f57fe5b9060005260206000209060070201600001548914156109f1576001818154811061066557fe5b9060005260206000209060070201600001546001828154811061068457fe5b9060005260206000209060070201600101600183815481106106a257fe5b9060005260206000209060070201600201600184815481106106c057fe5b9060005260206000209060070201600301600185815481106106de57fe5b9060005260206000209060070201600401600186815481106106fc57fe5b906000526020600020906007020160050160009054906101000a900473ffffffffffffffffffffffffffffffffffffffff166001878154811061073b57fe5b906000526020600020906007020160060160009054906101000a900473ffffffffffffffffffffffffffffffffffffffff16858054600181600116156101000203166002900480601f0160208091040260200160405190810160405280929190818152602001828054600181600116156101000203166002900480156108025780601f106107d757610100808354040283529160200191610802565b820191906000526020600020905b8154815290600101906020018083116107e557829003601f168201915b50505050509550848054600181600116156101000203166002900480601f01602080910402602001604051908101604052809291908181526020018280546001816001161561010002031660029004801561089e5780601f106108735761010080835404028352916020019161089e565b820191906000526020600020905b81548152906001019060200180831161088157829003601f168201915b50505050509450838054600181600116156101000203166002900480601f01602080910402602001604051908101604052809291908181526020018280546001816001161561010002031660029004801561093a5780601f1061090f5761010080835404028352916020019161093a565b820191906000526020600020905b81548152906001019060200180831161091d57829003601f168201915b50505050509350828054600181600116156101000203166002900480601f0160208091040260200160405190810160405280929190818152602001828054600181600116156101000203166002900480156109d65780601f106109ab576101008083540402835291602001916109d6565b820191906000526020600020905b8154815290600101906020018083116109b957829003601f168201915b50505050509250975097509750975097509750975050610a3a565b8080600101915050610625565b506040517f08c379a0000000000000000000000000000000000000000000000000000000008152600401610a3190612098565b60405180910390fd5b919395979092949650565b60005481565b60606001805480602002602001604051908101604052809291908181526020016000905b82821015610ddf57838290600052602060002090600702016040518060e001604052908160008201548152602001600182018054600181600116156101000203166002900480601f016020809104026020016040519081016040528092919081815260200182805460018160011615610100020316600290048015610b355780601f10610b0a57610100808354040283529160200191610b35565b820191906000526020600020905b815481529060010190602001808311610b1857829003601f168201915b50505050508152602001600282018054600181600116156101000203166002900480601f016020809104026020016040519081016040528092919081815260200182805460018160011615610100020316600290048015610bd75780601f10610bac57610100808354040283529160200191610bd7565b820191906000526020600020905b815481529060010190602001808311610bba57829003601f168201915b50505050508152602001600382018054600181600116156101000203166002900480601f016020809104026020016040519081016040528092919081815260200182805460018160011615610100020316600290048015610c795780601f10610c4e57610100808354040283529160200191610c79565b820191906000526020600020905b815481529060010190602001808311610c5c57829003601f168201915b50505050508152602001600482018054600181600116156101000203166002900480601f016020809104026020016040519081016040528092919081815260200182805460018160011615610100020316600290048015610d1b5780601f10610cf057610100808354040283529160200191610d1b565b820191906000526020600020905b815481529060010190602001808311610cfe57829003601f168201915b505050505081526020016005820160009054906101000a900473ffffffffffffffffffffffffffffffffffffffff1673ffffffffffffffffffffffffffffffffffffffff1673ffffffffffffffffffffffffffffffffffffffff1681526020016006820160009054906101000a900473ffffffffffffffffffffffffffffffffffffffff1673ffffffffffffffffffffffffffffffffffffffff1673ffffffffffffffffffffffffffffffffffffffff168152505081526020019060010190610a6f565b50505050905090565b6000339050600033905060016040518060e0016040528060005481526020018881526020018781526020018681526020018581526020018473ffffffffffffffffffffffffffffffffffffffff1681526020018373ffffffffffffffffffffffffffffffffffffffff1681525090806001815401808255809150509060018203906000526020600020906007020160009091929091909150600082015181600001556020820151816001019080519060200190610ea6929190611902565b506040820151816002019080519060200190610ec3929190611902565b506060820151816003019080519060200190610ee0929190611902565b506080820151816004019080519060200190610efd929190611902565b5060a08201518160050160006101000a81548173ffffffffffffffffffffffffffffffffffffffff021916908373ffffffffffffffffffffffffffffffffffffffff16021790555060c08201518160060160006101000a81548173ffffffffffffffffffffffffffffffffffffffff021916908373ffffffffffffffffffffffffffffffffffffffff1602179055505050506000808154809291906001019190505550505050505050565b6000600180549050905090565b6000606060008090505b60018054905081101561121f5760018181548110610fd957fe5b9060005260206000209060070201600001548614801561106257506001818154811061100157fe5b906000526020600020906007020160060160009054906101000a900473ffffffffffffffffffffffffffffffffffffffff1673ffffffffffffffffffffffffffffffffffffffff168573ffffffffffffffffffffffffffffffffffffffff16145b1561121257836001828154811061107557fe5b906000526020600020906007020160060160006101000a81548173ffffffffffffffffffffffffffffffffffffffff021916908373ffffffffffffffffffffffffffffffffffffffff160217905550836002600183815481106110d457fe5b906000526020600020906007020160000154601481106110f057fe5b0160006101000a81548173ffffffffffffffffffffffffffffffffffffffff021916908373ffffffffffffffffffffffffffffffffffffffff1602179055506001818154811061113c57fe5b9060005260206000209060070201600001546001828154811061115b57fe5b9060005260206000209060070201600101808054600181600116156101000203166002900480601f0160208091040260200160405190810160405280929190818152602001828054600181600116156101000203166002900480156112015780601f106111d657610100808354040283529160200191611201565b820191906000526020600020905b8154815290600101906020018083116111e457829003601f168201915b50505050509050925092505061125b565b8080600101915050610fbf565b506040517f08c379a0000000000000000000000000000000000000000000000000000000008152600401611252906120b8565b60405180910390fd5b935093915050565b606060008090505b600180549050811015611412576001818154811061128557fe5b9060005260206000209060070201600001548414801561130e5750600181815481106112ad57fe5b906000526020600020906007020160060160009054906101000a900473ffffffffffffffffffffffffffffffffffffffff1673ffffffffffffffffffffffffffffffffffffffff168373ffffffffffffffffffffffffffffffffffffffff16145b15611405576001818154811061132057fe5b90600052602060002090600702016000808201600090556001820160006113479190611982565b6002820160006113579190611982565b6003820160006113679190611982565b6004820160006113779190611982565b6005820160006101000a81549073ffffffffffffffffffffffffffffffffffffffff02191690556006820160006101000a81549073ffffffffffffffffffffffffffffffffffffffff021916905550506040518060400160405280601581526020017f50657420686173206265656e2064656c6973746564000000000000000000000081525091505061144e565b808060010191505061126b565b506040517f08c379a0000000000000000000000000000000000000000000000000000000008152600401611445906120d8565b60405180910390fd5b92915050565b6001818154811061146157fe5b9060005260206000209060070201600091509050806000015490806001018054600181600116156101000203166002900480601f0160208091040260200160405190810160405280929190818152602001828054600181600116156101000203166002900480156115135780601f106114e857610100808354040283529160200191611513565b820191906000526020600020905b8154815290600101906020018083116114f657829003601f168201915b505050505090806002018054600181600116156101000203166002900480601f0160208091040260200160405190810160405280929190818152602001828054600181600116156101000203166002900480156115b15780601f10611586576101008083540402835291602001916115b1565b820191906000526020600020905b81548152906001019060200180831161159457829003601f168201915b505050505090806003018054600181600116156101000203166002900480601f01602080910402602001604051908101604052809291908181526020018280546001816001161561010002031660029004801561164f5780601f106116245761010080835404028352916020019161164f565b820191906000526020600020905b81548152906001019060200180831161163257829003601f168201915b505050505090806004018054600181600116156101000203166002900480601f0160208091040260200160405190810160405280929190818152602001828054600181600116156101000203166002900480156116ed5780601f106116c2576101008083540402835291602001916116ed565b820191906000526020600020905b8154815290600101906020018083116116d057829003601f168201915b5050505050908060050160009054906101000a900473ffffffffffffffffffffffffffffffffffffffff16908060060160009054906101000a900473ffffffffffffffffffffffffffffffffffffffff16905087565b6000808210158015611756575060148211155b61175f57600080fd5b60008090505b600180549050811015611809576001818154811061177f57fe5b9060005260206000209060070201600001548314156117fc57600033905080600183815481106117ab57fe5b906000526020600020906007020160060160006101000a81548173ffffffffffffffffffffffffffffffffffffffff021916908373ffffffffffffffffffffffffffffffffffffffff160217905550505b8080600101915050611765565b50336002836014811061181857fe5b0160006101000a81548173ffffffffffffffffffffffffffffffffffffffff021916908373ffffffffffffffffffffffffffffffffffffffff160217905550819050919050565b828054600181600116156101000203166002900490600052602060002090601f016020900481019282601f106118a057805160ff19168380011785556118ce565b828001600101855582156118ce579182015b828111156118cd5782518255916020019190600101906118b2565b5b5090506118db91906119ca565b5090565b604051806102800160405280601490602082028038833980820191505090505090565b828054600181600116156101000203166002900490600052602060002090601f016020900481019282601f1061194357805160ff1916838001178555611971565b82800160010185558215611971579182015b82811115611970578251825591602001919060010190611955565b5b50905061197e91906119ca565b5090565b50805460018160011615610100020316600290046000825580601f106119a857506119c7565b601f0160209004906000526020600020908101906119c691906119ca565b5b50565b6119ec91905b808211156119e85760008160009055506001016119d0565b5090565b90565b6000813590506119fe816123df565b92915050565b600082601f830112611a1557600080fd5b8135611a28611a2382612286565b612259565b91508082526020830160208301858383011115611a4457600080fd5b611a4f83828461238c565b50505092915050565b600081359050611a67816123f6565b92915050565b60008060008060808587031215611a8357600080fd5b600085013567ffffffffffffffff811115611a9d57600080fd5b611aa987828801611a04565b945050602085013567ffffffffffffffff811115611ac657600080fd5b611ad287828801611a04565b935050604085013567ffffffffffffffff811115611aef57600080fd5b611afb87828801611a04565b925050606085013567ffffffffffffffff811115611b1857600080fd5b611b2487828801611a04565b91505092959194509250565b600060208284031215611b4257600080fd5b6000611b5084828501611a58565b91505092915050565b60008060408385031215611b6c57600080fd5b6000611b7a85828601611a58565b9250506020611b8b858286016119ef565b9150509250929050565b600080600060608486031215611baa57600080fd5b6000611bb886828701611a58565b9350506020611bc9868287016119ef565b9250506040611bda868287016119ef565b9150509250925092565b60008060008060008060c08789031215611bfd57600080fd5b6000611c0b89828a01611a58565b965050602087013567ffffffffffffffff811115611c2857600080fd5b611c3489828a01611a04565b955050604087013567ffffffffffffffff811115611c5157600080fd5b611c5d89828a01611a04565b945050606087013567ffffffffffffffff811115611c7a57600080fd5b611c8689828a01611a04565b935050608087013567ffffffffffffffff811115611ca357600080fd5b611caf89828a01611a04565b92505060a0611cc089828a016119ef565b9150509295509295509295565b6000611cd98383611cf9565b60208301905092915050565b6000611cf18383611f4e565b905092915050565b611d0281612350565b82525050565b611d1181612350565b82525050565b611d20816122cc565b611d2a8184612312565b9250611d35826122b2565b8060005b83811015611d66578151611d4d8782611ccd565b9650611d58836122f8565b925050600181019050611d39565b505050505050565b6000611d79826122d7565b611d83818561231d565b935083602082028501611d95856122bc565b8060005b85811015611dd15784840389528151611db28582611ce5565b9450611dbd83612305565b925060208a01995050600181019050611d99565b50829750879550505050505092915050565b6000611dee826122ed565b611df8818561233f565b9350611e0881856020860161239b565b611e11816123ce565b840191505092915050565b6000611e27826122e2565b611e31818561232e565b9350611e4181856020860161239b565b611e4a816123ce565b840191505092915050565b6000611e60826122e2565b611e6a818561233f565b9350611e7a81856020860161239b565b611e83816123ce565b840191505092915050565b6000611e9b600d8361233f565b91507f506574206e6f7420666f756e64000000000000000000000000000000000000006000830152602082019050919050565b6000611edb600c8361233f565b91507f4e6f2070657420666f756e6400000000000000000000000000000000000000006000830152602082019050919050565b6000611f1b60058361233f565b91507f4572726f720000000000000000000000000000000000000000000000000000006000830152602082019050919050565b600060e083016000830151611f666000860182611fff565b5060208301518482036020860152611f7e8282611e1c565b91505060408301518482036040860152611f988282611e1c565b91505060608301518482036060860152611fb28282611e1c565b91505060808301518482036080860152611fcc8282611e1c565b91505060a0830151611fe160a0860182611cf9565b5060c0830151611ff460c0860182611cf9565b508091505092915050565b61200881612382565b82525050565b61201781612382565b82525050565b60006020820190506120326000830184611d08565b92915050565b60006102808201905061204e6000830184611d17565b92915050565b6000602082019050818103600083015261206e8184611d6e565b905092915050565b600060208201905081810360008301526120908184611de3565b905092915050565b600060208201905081810360008301526120b181611e8e565b9050919050565b600060208201905081810360008301526120d181611ece565b9050919050565b600060208201905081810360008301526120f181611f0e565b9050919050565b600060208201905061210d600083018461200e565b92915050565b6000604082019050612128600083018561200e565b818103602083015261213a8184611de3565b90509392505050565b600060e082019050612158600083018a61200e565b818103602083015261216a8189611de3565b9050818103604083015261217e8188611de3565b905081810360608301526121928187611de3565b905081810360808301526121a68186611de3565b90506121b560a0830185611d08565b6121c260c0830184611d08565b98975050505050505050565b600060e0820190506121e3600083018a61200e565b81810360208301526121f58189611e55565b905081810360408301526122098188611e55565b9050818103606083015261221d8187611e55565b905081810360808301526122318186611e55565b905061224060a0830185611d08565b61224d60c0830184611d08565b98975050505050505050565b6000604051905081810181811067ffffffffffffffff8211171561227c57600080fd5b8060405250919050565b600067ffffffffffffffff82111561229d57600080fd5b601f19601f8301169050602081019050919050565b6000819050919050565b6000819050602082019050919050565b600060149050919050565b600081519050919050565b600081519050919050565b600081519050919050565b6000602082019050919050565b6000602082019050919050565b600081905092915050565b600082825260208201905092915050565b600082825260208201905092915050565b600082825260208201905092915050565b600061235b82612362565b9050919050565b600073ffffffffffffffffffffffffffffffffffffffff82169050919050565b6000819050919050565b82818337600083830152505050565b60005b838110156123b957808201518184015260208101905061239e565b838111156123c8576000848401525b50505050565b6000601f19601f8301169050919050565b6123e881612350565b81146123f357600080fd5b50565b6123ff81612382565b811461240a57600080fd5b5056fea365627a7a72315820ba7c10999d8d0e40095eb5d8b2b88c5aea2b4d33381eb65da6bca3f68e2c93a26c6578706572696d656e74616cf564736f6c63430005100040",
  "source": "// SPDX-License-Identifier: MIT\npragma solidity ^0.5.16;\npragma experimental ABIEncoderV2;\n\ncontract Crud {\n\n    struct Pet {\n        uint Id;\n        string name;\n        string picture;\n        string breed;\n        string location;\n        address seller;\n        address owner;\n    }\n    uint public nextId = 1;\n    Pet[] public pets;\n\n    function createPetListing(\n        string memory name,\n        string memory picture,\n        string memory breed,\n        string memory location\n    ) public {\n        address seller = msg.sender;\n        address owner = msg.sender;\n        pets.push(Pet(nextId, name, picture, breed, location,seller, owner));\n        nextId ++;\n    }\n\n    function getPet(uint id) public view returns(uint, string memory, string memory, string memory, string memory, address, address) {\n        for(uint i = 0; i < pets.length; i++) {\n            if(id == pets[i].Id){\n                return (pets[i].Id, pets[i].name, pets[i].picture, pets[i].breed, pets[i].location, pets[i].seller, pets[i].owner);\n            }\n        }\n        revert(\"Pet not found\");\n    }\n\n    function getPets() public view returns(Pet[] memory) {\n        return (pets);\n    }\n\n    function getPetsLength() public view returns(uint) {\n        return (pets.length);\n    }\n\n\n    function deletePet(uint id, address owner) public returns(string memory) {\n        for(uint i = 0; i < pets.length; i++) {\n            if(id == pets[i].Id && owner == pets[i].owner){\n                delete(pets[i]);\n                return (\"Pet has been delisted\");\n            }\n        }\n        revert(\"Error\");\n    }\n\n    function updatePet(uint id, string memory name, string memory picture, string memory breed, string memory location, address owner) public returns(uint, string memory) {\n\n        for(uint i = 0; i < pets.length; i++) {\n            if(id == pets[i].Id && owner == pets[i].owner){\n                pets[i].name = name;\n                pets[i].picture = picture;\n                pets[i].breed = breed;\n                pets[i].location = location;\n                return (pets[i].Id, pets[i].name);\n            }\n        }\n\n\n        revert(\"No pet found\");\n    }\n\n    function TransferPet(uint id, address owner, address newOwner) public returns(uint, string memory) {\n\n        for(uint i = 0; i < pets.length; i++) {\n            if(id == pets[i].Id && owner == pets[i].owner){\n                pets[i].owner = newOwner;\n                purchasers[pets[i].Id] = newOwner;\n                return (pets[i].Id, pets[i].name);\n            }\n        }\n\n\n        revert(\"No pet found\");\n    }\n\n\n    address[20] public purchasers;\n\n    function purchase(uint petId) public returns (uint) {\n        require(petId >= 0 && petId <= 20);\n\n        for(uint i = 0; i < pets.length; i++) {\n            if(petId == pets[i].Id){\n                address owner = msg.sender;\n                pets[i].owner = owner;\n            }\n        }\n\n        purchasers[petId] = msg.sender;\n\n        return petId;\n    }\n\n    function getPurchasers() public view returns (address[20] memory) {\n        return purchasers;\n    }\n\n}",
  "sourcePath": "/home/kali/Desktop/Projects/CatShop/contracts/Crud.sol",
  "compiler": {
    "name": "solc",
    "version": "0.5.16+commit.9c3226ce.Emscripten.clang"
  },
  "schemaVersion": "3.4.3",
  "updatedAt": "2021-12-20T15:47:47.039Z",
  "networkType": "ethereum",
  "devdoc": {
    "methods": {}
  },
  "userdoc": {
    "methods": {}
  }
}