{
  "contractName": "Crud",
  "abi": [
    {
      "constant": true,
      "inputs": [],
      "name": "nextId",
      "outputs": [
        {
          "internalType": "uint256",
          "name": "",
          "type": "uint256"
        }
      ],
      "payable": false,
      "stateMutability": "view",
      "type": "function"
    },
    {
      "constant": true,
      "inputs": [
        {
          "internalType": "uint256",
          "name": "",
          "type": "uint256"
        }
      ],
      "name": "pets",
      "outputs": [
        {
          "internalType": "uint256",
          "name": "Id",
          "type": "uint256"
        },
        {
          "internalType": "string",
          "name": "name",
          "type": "string"
        },
        {
          "internalType": "string",
          "name": "picture",
          "type": "string"
        },
        {
          "internalType": "string",
          "name": "breed",
          "type": "string"
        },
        {
          "internalType": "string",
          "name": "location",
          "type": "string"
        },
        {
          "internalType": "address",
          "name": "seller",
          "type": "address"
        },
        {
          "internalType": "address",
          "name": "owner",
          "type": "address"
        }
      ],
      "payable": false,
      "stateMutability": "view",
      "type": "function"
    },
    {
      "constant": true,
      "inputs": [
        {
          "internalType": "uint256",
          "name": "",
          "type": "uint256"
        }
      ],
      "name": "purchasers",
      "outputs": [
        {
          "internalType": "address",
          "name": "",
          "type": "address"
        }
      ],
      "payable": false,
      "stateMutability": "view",
      "type": "function"
    },
    {
      "constant": false,
      "inputs": [
        {
          "internalType": "string",
          "name": "name",
          "type": "string"
        },
        {
          "internalType": "string",
          "name": "picture",
          "type": "string"
        },
        {
          "internalType": "string",
          "name": "breed",
          "type": "string"
        },
        {
          "internalType": "string",
          "name": "location",
          "type": "string"
        }
      ],
      "name": "createPetListing",
      "outputs": [],
      "payable": false,
      "stateMutability": "nonpayable",
      "type": "function"
    },
    {
      "constant": true,
      "inputs": [
        {
          "internalType": "uint256",
          "name": "id",
          "type": "uint256"
        }
      ],
      "name": "getPet",
      "outputs": [
        {
          "internalType": "uint256",
          "name": "",
          "type": "uint256"
        },
        {
          "internalType": "string",
          "name": "",
          "type": "string"
        },
        {
          "internalType": "string",
          "name": "",
          "type": "string"
        },
        {
          "internalType": "string",
          "name": "",
          "type": "string"
        },
        {
          "internalType": "string",
          "name": "",
          "type": "string"
        },
        {
          "internalType": "address",
          "name": "",
          "type": "address"
        },
        {
          "internalType": "address",
          "name": "",
          "type": "address"
        }
      ],
      "payable": false,
      "stateMutability": "view",
      "type": "function"
    },
    {
      "constant": true,
      "inputs": [],
      "name": "getPets",
      "outputs": [
        {
          "components": [
            {
              "internalType": "uint256",
              "name": "Id",
              "type": "uint256"
            },
            {
              "internalType": "string",
              "name": "name",
              "type": "string"
            },
            {
              "internalType": "string",
              "name": "picture",
              "type": "string"
            },
            {
              "internalType": "string",
              "name": "breed",
              "type": "string"
            },
            {
              "internalType": "string",
              "name": "location",
              "type": "string"
            },
            {
              "internalType": "address",
              "name": "seller",
              "type": "address"
            },
            {
              "internalType": "address",
              "name": "owner",
              "type": "address"
            }
          ],
          "internalType": "struct Crud.Pet[]",
          "name": "",
          "type": "tuple[]"
        }
      ],
      "payable": false,
      "stateMutability": "view",
      "type": "function"
    },
    {
      "constant": false,
      "inputs": [
        {
          "internalType": "uint256",
          "name": "id",
          "type": "uint256"
        },
        {
          "internalType": "address",
          "name": "owner",
          "type": "address"
        }
      ],
      "name": "deletePet",
      "outputs": [
        {
          "internalType": "string",
          "name": "",
          "type": "string"
        }
      ],
      "payable": false,
      "stateMutability": "nonpayable",
      "type": "function"
    },
    {
      "constant": false,
      "inputs": [
        {
          "internalType": "uint256",
          "name": "id",
          "type": "uint256"
        },
        {
          "internalType": "string",
          "name": "name",
          "type": "string"
        },
        {
          "internalType": "string",
          "name": "picture",
          "type": "string"
        },
        {
          "internalType": "string",
          "name": "breed",
          "type": "string"
        },
        {
          "internalType": "string",
          "name": "location",
          "type": "string"
        },
        {
          "internalType": "address",
          "name": "owner",
          "type": "address"
        }
      ],
      "name": "updatePet",
      "outputs": [
        {
          "internalType": "uint256",
          "name": "",
          "type": "uint256"
        },
        {
          "internalType": "string",
          "name": "",
          "type": "string"
        }
      ],
      "payable": false,
      "stateMutability": "nonpayable",
      "type": "function"
    },
    {
      "constant": false,
      "inputs": [
        {
          "internalType": "uint256",
          "name": "petId",
          "type": "uint256"
        }
      ],
      "name": "purchase",
      "outputs": [
        {
          "internalType": "uint256",
          "name": "",
          "type": "uint256"
        }
      ],
      "payable": false,
      "stateMutability": "nonpayable",
      "type": "function"
    },
    {
      "constant": true,
      "inputs": [],
      "name": "getPurchasers",
      "outputs": [
        {
          "internalType": "address[20]",
          "name": "",
          "type": "address[20]"
        }
      ],
      "payable": false,
      "stateMutability": "view",
      "type": "function"
    }
  ],
  "bytecode": "0x6080604052600160005534801561001557600080fd5b506120ae806100256000396000f3fe608060405234801561001057600080fd5b506004361061009e5760003560e01c80636d71ad38116100665780636d71ad3814610176578063767b53fb14610194578063cfb38dd9146101b0578063cfb869bf146101e0578063efef39a1146102165761009e565b806302a89d3b146100a35780630409eb85146100d457806312923b65146100f257806359d551941461012257806361b8ce8c14610158575b600080fd5b6100bd60048036036100b89190810190611842565b610246565b6040516100cb929190611d71565b60405180910390f35b6100dc6104c8565b6040516100e99190611c96565b60405180910390f35b61010c600480360361010791908101906117dd565b610549565b6040516101199190611c7b565b60405180910390f35b61013c600480360361013791908101906117dd565b61057c565b60405161014f9796959493929190611da1565b60405180910390f35b6101606109ad565b60405161016d9190611d56565b60405180910390f35b61017e6109b3565b60405161018b9190611cb2565b60405180910390f35b6101ae60048036036101a9919081019061171a565b610d50565b005b6101ca60048036036101c59190810190611806565b610f10565b6040516101d79190611cd4565b60405180910390f35b6101fa60048036036101f591908101906117dd565b611101565b60405161020d9796959493929190611e2c565b60405180910390f35b610230600480360361022b91908101906117dd565b6113f0565b60405161023d9190611d56565b60405180910390f35b6000606060008090505b600180549050811015610481576001818154811061026a57fe5b906000526020600020906007020160000154891480156102f357506001818154811061029257fe5b906000526020600020906007020160060160009054906101000a900473ffffffffffffffffffffffffffffffffffffffff1673ffffffffffffffffffffffffffffffffffffffff168473ffffffffffffffffffffffffffffffffffffffff16145b1561047457876001828154811061030657fe5b9060005260206000209060070201600101908051906020019061032a92919061150c565b50856001828154811061033957fe5b9060005260206000209060070201600301908051906020019061035d92919061150c565b50846001828154811061036c57fe5b9060005260206000209060070201600401908051906020019061039092919061150c565b506001818154811061039e57fe5b906000526020600020906007020160000154600182815481106103bd57fe5b9060005260206000209060070201600101808054600181600116156101000203166002900480601f0160208091040260200160405190810160405280929190818152602001828054600181600116156101000203166002900480156104635780601f1061043857610100808354040283529160200191610463565b820191906000526020600020905b81548152906001019060200180831161044657829003601f168201915b5050505050905092509250506104bd565b8080600101915050610250565b506040517f08c379a00000000000000000000000000000000000000000000000000000000081526004016104b490611d16565b60405180910390fd5b965096945050505050565b6104d061158c565b600260148060200260405190810160405280929190826014801561053f576020028201915b8160009054906101000a900473ffffffffffffffffffffffffffffffffffffffff1673ffffffffffffffffffffffffffffffffffffffff16815260200190600101908083116104f5575b5050505050905090565b6002816014811061055657fe5b016000915054906101000a900473ffffffffffffffffffffffffffffffffffffffff1681565b600060608060608060008060008090505b60018054905081101561096657600181815481106105a757fe5b90600052602060002090600702016000015489141561095957600181815481106105cd57fe5b906000526020600020906007020160000154600182815481106105ec57fe5b90600052602060002090600702016001016001838154811061060a57fe5b90600052602060002090600702016002016001848154811061062857fe5b90600052602060002090600702016003016001858154811061064657fe5b90600052602060002090600702016004016001868154811061066457fe5b906000526020600020906007020160050160009054906101000a900473ffffffffffffffffffffffffffffffffffffffff16600187815481106106a357fe5b906000526020600020906007020160060160009054906101000a900473ffffffffffffffffffffffffffffffffffffffff16858054600181600116156101000203166002900480601f01602080910402602001604051908101604052809291908181526020018280546001816001161561010002031660029004801561076a5780601f1061073f5761010080835404028352916020019161076a565b820191906000526020600020905b81548152906001019060200180831161074d57829003601f168201915b50505050509550848054600181600116156101000203166002900480601f0160208091040260200160405190810160405280929190818152602001828054600181600116156101000203166002900480156108065780601f106107db57610100808354040283529160200191610806565b820191906000526020600020905b8154815290600101906020018083116107e957829003601f168201915b50505050509450838054600181600116156101000203166002900480601f0160208091040260200160405190810160405280929190818152602001828054600181600116156101000203166002900480156108a25780601f10610877576101008083540402835291602001916108a2565b820191906000526020600020905b81548152906001019060200180831161088557829003601f168201915b50505050509350828054600181600116156101000203166002900480601f01602080910402602001604051908101604052809291908181526020018280546001816001161561010002031660029004801561093e5780601f106109135761010080835404028352916020019161093e565b820191906000526020600020905b81548152906001019060200180831161092157829003601f168201915b505050505092509750975097509750975097509750506109a2565b808060010191505061058d565b506040517f08c379a000000000000000000000000000000000000000000000000000000000815260040161099990611cf6565b60405180910390fd5b919395979092949650565b60005481565b60606001805480602002602001604051908101604052809291908181526020016000905b82821015610d4757838290600052602060002090600702016040518060e001604052908160008201548152602001600182018054600181600116156101000203166002900480601f016020809104026020016040519081016040528092919081815260200182805460018160011615610100020316600290048015610a9d5780601f10610a7257610100808354040283529160200191610a9d565b820191906000526020600020905b815481529060010190602001808311610a8057829003601f168201915b50505050508152602001600282018054600181600116156101000203166002900480601f016020809104026020016040519081016040528092919081815260200182805460018160011615610100020316600290048015610b3f5780601f10610b1457610100808354040283529160200191610b3f565b820191906000526020600020905b815481529060010190602001808311610b2257829003601f168201915b50505050508152602001600382018054600181600116156101000203166002900480601f016020809104026020016040519081016040528092919081815260200182805460018160011615610100020316600290048015610be15780601f10610bb657610100808354040283529160200191610be1565b820191906000526020600020905b815481529060010190602001808311610bc457829003601f168201915b50505050508152602001600482018054600181600116156101000203166002900480601f016020809104026020016040519081016040528092919081815260200182805460018160011615610100020316600290048015610c835780601f10610c5857610100808354040283529160200191610c83565b820191906000526020600020905b815481529060010190602001808311610c6657829003601f168201915b505050505081526020016005820160009054906101000a900473ffffffffffffffffffffffffffffffffffffffff1673ffffffffffffffffffffffffffffffffffffffff1673ffffffffffffffffffffffffffffffffffffffff1681526020016006820160009054906101000a900473ffffffffffffffffffffffffffffffffffffffff1673ffffffffffffffffffffffffffffffffffffffff1673ffffffffffffffffffffffffffffffffffffffff1681525050815260200190600101906109d7565b50505050905090565b6000339050600033905060016040518060e0016040528060005481526020018881526020018781526020018681526020018581526020018473ffffffffffffffffffffffffffffffffffffffff1681526020018373ffffffffffffffffffffffffffffffffffffffff1681525090806001815401808255809150509060018203906000526020600020906007020160009091929091909150600082015181600001556020820151816001019080519060200190610e0e9291906115af565b506040820151816002019080519060200190610e2b9291906115af565b506060820151816003019080519060200190610e489291906115af565b506080820151816004019080519060200190610e659291906115af565b5060a08201518160050160006101000a81548173ffffffffffffffffffffffffffffffffffffffff021916908373ffffffffffffffffffffffffffffffffffffffff16021790555060c08201518160060160006101000a81548173ffffffffffffffffffffffffffffffffffffffff021916908373ffffffffffffffffffffffffffffffffffffffff1602179055505050506000808154809291906001019190505550505050505050565b606060008090505b6001805490508110156110bf5760018181548110610f3257fe5b90600052602060002090600702016000015484148015610fbb575060018181548110610f5a57fe5b906000526020600020906007020160060160009054906101000a900473ffffffffffffffffffffffffffffffffffffffff1673ffffffffffffffffffffffffffffffffffffffff168373ffffffffffffffffffffffffffffffffffffffff16145b156110b25760018181548110610fcd57fe5b9060005260206000209060070201600080820160009055600182016000610ff4919061162f565b600282016000611004919061162f565b600382016000611014919061162f565b600482016000611024919061162f565b6005820160006101000a81549073ffffffffffffffffffffffffffffffffffffffff02191690556006820160006101000a81549073ffffffffffffffffffffffffffffffffffffffff021916905550506040518060400160405280601581526020017f50657420686173206265656e2064656c697374656400000000000000000000008152509150506110fb565b8080600101915050610f18565b506040517f08c379a00000000000000000000000000000000000000000000000000000000081526004016110f290611d36565b60405180910390fd5b92915050565b6001818154811061110e57fe5b9060005260206000209060070201600091509050806000015490806001018054600181600116156101000203166002900480601f0160208091040260200160405190810160405280929190818152602001828054600181600116156101000203166002900480156111c05780601f10611195576101008083540402835291602001916111c0565b820191906000526020600020905b8154815290600101906020018083116111a357829003601f168201915b505050505090806002018054600181600116156101000203166002900480601f01602080910402602001604051908101604052809291908181526020018280546001816001161561010002031660029004801561125e5780601f106112335761010080835404028352916020019161125e565b820191906000526020600020905b81548152906001019060200180831161124157829003601f168201915b505050505090806003018054600181600116156101000203166002900480601f0160208091040260200160405190810160405280929190818152602001828054600181600116156101000203166002900480156112fc5780601f106112d1576101008083540402835291602001916112fc565b820191906000526020600020905b8154815290600101906020018083116112df57829003601f168201915b505050505090806004018054600181600116156101000203166002900480601f01602080910402602001604051908101604052809291908181526020018280546001816001161561010002031660029004801561139a5780601f1061136f5761010080835404028352916020019161139a565b820191906000526020600020905b81548152906001019060200180831161137d57829003601f168201915b5050505050908060050160009054906101000a900473ffffffffffffffffffffffffffffffffffffffff16908060060160009054906101000a900473ffffffffffffffffffffffffffffffffffffffff16905087565b6000808210158015611403575060148211155b61140c57600080fd5b60008090505b6001805490508110156114b6576001818154811061142c57fe5b9060005260206000209060070201600001548314156114a9576000339050806001838154811061145857fe5b906000526020600020906007020160060160006101000a81548173ffffffffffffffffffffffffffffffffffffffff021916908373ffffffffffffffffffffffffffffffffffffffff160217905550505b8080600101915050611412565b5033600283601481106114c557fe5b0160006101000a81548173ffffffffffffffffffffffffffffffffffffffff021916908373ffffffffffffffffffffffffffffffffffffffff160217905550819050919050565b828054600181600116156101000203166002900490600052602060002090601f016020900481019282601f1061154d57805160ff191683800117855561157b565b8280016001018555821561157b579182015b8281111561157a57825182559160200191906001019061155f565b5b5090506115889190611677565b5090565b604051806102800160405280601490602082028038833980820191505090505090565b828054600181600116156101000203166002900490600052602060002090601f016020900481019282601f106115f057805160ff191683800117855561161e565b8280016001018555821561161e579182015b8281111561161d578251825591602001919060010190611602565b5b50905061162b9190611677565b5090565b50805460018160011615610100020316600290046000825580601f106116555750611674565b601f0160209004906000526020600020908101906116739190611677565b5b50565b61169991905b8082111561169557600081600090555060010161167d565b5090565b90565b6000813590506116ab8161203d565b92915050565b600082601f8301126116c257600080fd5b81356116d56116d082611ee4565b611eb7565b915080825260208301602083018583830111156116f157600080fd5b6116fc838284611fea565b50505092915050565b60008135905061171481612054565b92915050565b6000806000806080858703121561173057600080fd5b600085013567ffffffffffffffff81111561174a57600080fd5b611756878288016116b1565b945050602085013567ffffffffffffffff81111561177357600080fd5b61177f878288016116b1565b935050604085013567ffffffffffffffff81111561179c57600080fd5b6117a8878288016116b1565b925050606085013567ffffffffffffffff8111156117c557600080fd5b6117d1878288016116b1565b91505092959194509250565b6000602082840312156117ef57600080fd5b60006117fd84828501611705565b91505092915050565b6000806040838503121561181957600080fd5b600061182785828601611705565b92505060206118388582860161169c565b9150509250929050565b60008060008060008060c0878903121561185b57600080fd5b600061186989828a01611705565b965050602087013567ffffffffffffffff81111561188657600080fd5b61189289828a016116b1565b955050604087013567ffffffffffffffff8111156118af57600080fd5b6118bb89828a016116b1565b945050606087013567ffffffffffffffff8111156118d857600080fd5b6118e489828a016116b1565b935050608087013567ffffffffffffffff81111561190157600080fd5b61190d89828a016116b1565b92505060a061191e89828a0161169c565b9150509295509295509295565b60006119378383611957565b60208301905092915050565b600061194f8383611bac565b905092915050565b61196081611fae565b82525050565b61196f81611fae565b82525050565b61197e81611f2a565b6119888184611f70565b925061199382611f10565b8060005b838110156119c45781516119ab878261192b565b96506119b683611f56565b925050600181019050611997565b505050505050565b60006119d782611f35565b6119e18185611f7b565b9350836020820285016119f385611f1a565b8060005b85811015611a2f5784840389528151611a108582611943565b9450611a1b83611f63565b925060208a019950506001810190506119f7565b50829750879550505050505092915050565b6000611a4c82611f4b565b611a568185611f9d565b9350611a66818560208601611ff9565b611a6f8161202c565b840191505092915050565b6000611a8582611f40565b611a8f8185611f8c565b9350611a9f818560208601611ff9565b611aa88161202c565b840191505092915050565b6000611abe82611f40565b611ac88185611f9d565b9350611ad8818560208601611ff9565b611ae18161202c565b840191505092915050565b6000611af9600d83611f9d565b91507f506574206e6f7420666f756e64000000000000000000000000000000000000006000830152602082019050919050565b6000611b39600c83611f9d565b91507f4e6f2070657420666f756e6400000000000000000000000000000000000000006000830152602082019050919050565b6000611b79600583611f9d565b91507f4572726f720000000000000000000000000000000000000000000000000000006000830152602082019050919050565b600060e083016000830151611bc46000860182611c5d565b5060208301518482036020860152611bdc8282611a7a565b91505060408301518482036040860152611bf68282611a7a565b91505060608301518482036060860152611c108282611a7a565b91505060808301518482036080860152611c2a8282611a7a565b91505060a0830151611c3f60a0860182611957565b5060c0830151611c5260c0860182611957565b508091505092915050565b611c6681611fe0565b82525050565b611c7581611fe0565b82525050565b6000602082019050611c906000830184611966565b92915050565b600061028082019050611cac6000830184611975565b92915050565b60006020820190508181036000830152611ccc81846119cc565b905092915050565b60006020820190508181036000830152611cee8184611a41565b905092915050565b60006020820190508181036000830152611d0f81611aec565b9050919050565b60006020820190508181036000830152611d2f81611b2c565b9050919050565b60006020820190508181036000830152611d4f81611b6c565b9050919050565b6000602082019050611d6b6000830184611c6c565b92915050565b6000604082019050611d866000830185611c6c565b8181036020830152611d988184611a41565b90509392505050565b600060e082019050611db6600083018a611c6c565b8181036020830152611dc88189611a41565b90508181036040830152611ddc8188611a41565b90508181036060830152611df08187611a41565b90508181036080830152611e048186611a41565b9050611e1360a0830185611966565b611e2060c0830184611966565b98975050505050505050565b600060e082019050611e41600083018a611c6c565b8181036020830152611e538189611ab3565b90508181036040830152611e678188611ab3565b90508181036060830152611e7b8187611ab3565b90508181036080830152611e8f8186611ab3565b9050611e9e60a0830185611966565b611eab60c0830184611966565b98975050505050505050565b6000604051905081810181811067ffffffffffffffff82111715611eda57600080fd5b8060405250919050565b600067ffffffffffffffff821115611efb57600080fd5b601f19601f8301169050602081019050919050565b6000819050919050565b6000819050602082019050919050565b600060149050919050565b600081519050919050565b600081519050919050565b600081519050919050565b6000602082019050919050565b6000602082019050919050565b600081905092915050565b600082825260208201905092915050565b600082825260208201905092915050565b600082825260208201905092915050565b6000611fb982611fc0565b9050919050565b600073ffffffffffffffffffffffffffffffffffffffff82169050919050565b6000819050919050565b82818337600083830152505050565b60005b83811015612017578082015181840152602081019050611ffc565b83811115612026576000848401525b50505050565b6000601f19601f8301169050919050565b61204681611fae565b811461205157600080fd5b50565b61205d81611fe0565b811461206857600080fd5b5056fea365627a7a72315820120f1e1deed6d621a863202c013089f4df6204a52a10451440086277587ed26d6c6578706572696d656e74616cf564736f6c63430005100040",
  "source": "// SPDX-License-Identifier: MIT\npragma solidity ^0.5.16;\npragma experimental ABIEncoderV2;\n\ncontract Crud {\n\n  struct Pet {\n    uint Id;\n    string name;\n    string picture;\n    string breed;\n    string location;\n    address seller;\n    address owner;\n  }\n  uint public nextId = 1;\n  Pet[] public pets;\n\n  function createPetListing(\n      string memory name,\n      string memory picture,\n      string memory breed,\n      string memory location\n  ) public {\n    address seller = msg.sender;\n    address owner = msg.sender;\n    pets.push(Pet(nextId, name, picture, breed, location,seller, owner));\n    nextId ++;\n  }\n\n  function getPet(uint id) public view returns(uint, string memory, string memory, string memory, string memory, address, address) {\n    for(uint i = 0; i < pets.length; i++) {\n      if(id == pets[i].Id){\n        return (pets[i].Id, pets[i].name, pets[i].picture, pets[i].breed, pets[i].location, pets[i].seller, pets[i].owner);\n      }\n    }\n    revert(\"Pet not found\");\n  }\n\n  function getPets() public view returns(Pet[] memory) {\n    return (pets);\n  }\n\n  function deletePet(uint id, address owner) public returns(string memory) {\n    for(uint i = 0; i < pets.length; i++) {\n      if(id == pets[i].Id && owner == pets[i].owner){\n        delete(pets[i]);\n        return (\"Pet has been delisted\");\n      }\n    }\n    revert(\"Error\");\n  }\n\n  function updatePet(uint id, string memory name, string memory picture, string memory breed, string memory location, address owner) public returns(uint, string memory) {\n\n        for(uint i = 0; i < pets.length; i++) {\n            if(id == pets[i].Id && owner == pets[i].owner){\n                pets[i].name = name;\n                pets[i].breed = breed;\n                pets[i].location = location;\n            \n                return (pets[i].Id, pets[i].name);\n            }\n    }\n    \n\n    revert(\"No pet found\");\n  }\n\n\n  address[20] public purchasers;\n\nfunction purchase(uint petId) public returns (uint) {\n  require(petId >= 0 && petId <= 20);\n\n  for(uint i = 0; i < pets.length; i++) {\n      if(petId == pets[i].Id){\n        address owner = msg.sender;\n        pets[i].owner = owner;\n      }\n      }\n\n  purchasers[petId] = msg.sender;\n\n  return petId;\n}\n\nfunction getPurchasers() public view returns (address[20] memory) {\n  return purchasers;\n}\n\n}",
  "sourcePath": "/home/kali/Desktop/Projects/CatShop/contracts/Crud.sol",
  "compiler": {
    "name": "solc",
    "version": "0.5.16+commit.9c3226ce.Emscripten.clang"
  },
  "schemaVersion": "3.4.3",
  "updatedAt": "2021-12-18T22:41:13.265Z",
  "networkType": "ethereum",
  "devdoc": {
    "methods": {}
  },
  "userdoc": {
    "methods": {}
  }
}