{
  "contractName": "Crud",
  "abi": [
    {
      "constant": true,
      "inputs": [],
      "name": "nextId",
      "outputs": [
        {
          "internalType": "uint256",
          "name": "",
          "type": "uint256"
        }
      ],
      "payable": false,
      "stateMutability": "view",
      "type": "function"
    },
    {
      "constant": true,
      "inputs": [
        {
          "internalType": "uint256",
          "name": "",
          "type": "uint256"
        }
      ],
      "name": "pets",
      "outputs": [
        {
          "internalType": "uint256",
          "name": "Id",
          "type": "uint256"
        },
        {
          "internalType": "string",
          "name": "name",
          "type": "string"
        },
        {
          "internalType": "string",
          "name": "picture",
          "type": "string"
        },
        {
          "internalType": "string",
          "name": "breed",
          "type": "string"
        },
        {
          "internalType": "string",
          "name": "location",
          "type": "string"
        },
        {
          "internalType": "address",
          "name": "seller",
          "type": "address"
        },
        {
          "internalType": "address",
          "name": "owner",
          "type": "address"
        },
        {
          "internalType": "uint256",
          "name": "price",
          "type": "uint256"
        }
      ],
      "payable": false,
      "stateMutability": "view",
      "type": "function"
    },
    {
      "constant": true,
      "inputs": [
        {
          "internalType": "uint256",
          "name": "",
          "type": "uint256"
        }
      ],
      "name": "purchasers",
      "outputs": [
        {
          "internalType": "address",
          "name": "",
          "type": "address"
        }
      ],
      "payable": false,
      "stateMutability": "view",
      "type": "function"
    },
    {
      "constant": false,
      "inputs": [
        {
          "internalType": "string",
          "name": "name",
          "type": "string"
        },
        {
          "internalType": "string",
          "name": "picture",
          "type": "string"
        },
        {
          "internalType": "string",
          "name": "breed",
          "type": "string"
        },
        {
          "internalType": "string",
          "name": "location",
          "type": "string"
        },
        {
          "internalType": "uint256",
          "name": "price",
          "type": "uint256"
        }
      ],
      "name": "createPetListing",
      "outputs": [],
      "payable": false,
      "stateMutability": "nonpayable",
      "type": "function"
    },
    {
      "constant": true,
      "inputs": [
        {
          "internalType": "uint256",
          "name": "id",
          "type": "uint256"
        }
      ],
      "name": "getPet",
      "outputs": [
        {
          "internalType": "uint256",
          "name": "",
          "type": "uint256"
        },
        {
          "internalType": "string",
          "name": "",
          "type": "string"
        },
        {
          "internalType": "string",
          "name": "",
          "type": "string"
        },
        {
          "internalType": "string",
          "name": "",
          "type": "string"
        },
        {
          "internalType": "string",
          "name": "",
          "type": "string"
        },
        {
          "internalType": "address",
          "name": "",
          "type": "address"
        },
        {
          "internalType": "address",
          "name": "",
          "type": "address"
        },
        {
          "internalType": "uint256",
          "name": "",
          "type": "uint256"
        }
      ],
      "payable": false,
      "stateMutability": "view",
      "type": "function"
    },
    {
      "constant": true,
      "inputs": [],
      "name": "getPets",
      "outputs": [
        {
          "components": [
            {
              "internalType": "uint256",
              "name": "Id",
              "type": "uint256"
            },
            {
              "internalType": "string",
              "name": "name",
              "type": "string"
            },
            {
              "internalType": "string",
              "name": "picture",
              "type": "string"
            },
            {
              "internalType": "string",
              "name": "breed",
              "type": "string"
            },
            {
              "internalType": "string",
              "name": "location",
              "type": "string"
            },
            {
              "internalType": "address",
              "name": "seller",
              "type": "address"
            },
            {
              "internalType": "address",
              "name": "owner",
              "type": "address"
            },
            {
              "internalType": "uint256",
              "name": "price",
              "type": "uint256"
            }
          ],
          "internalType": "struct Crud.Pet[]",
          "name": "",
          "type": "tuple[]"
        }
      ],
      "payable": false,
      "stateMutability": "view",
      "type": "function"
    },
    {
      "constant": true,
      "inputs": [],
      "name": "getPetsLength",
      "outputs": [
        {
          "internalType": "uint256",
          "name": "",
          "type": "uint256"
        }
      ],
      "payable": false,
      "stateMutability": "view",
      "type": "function"
    },
    {
      "constant": false,
      "inputs": [
        {
          "internalType": "uint256",
          "name": "id",
          "type": "uint256"
        },
        {
          "internalType": "address",
          "name": "owner",
          "type": "address"
        }
      ],
      "name": "deletePet",
      "outputs": [
        {
          "internalType": "string",
          "name": "",
          "type": "string"
        }
      ],
      "payable": false,
      "stateMutability": "nonpayable",
      "type": "function"
    },
    {
      "constant": false,
      "inputs": [
        {
          "internalType": "uint256",
          "name": "id",
          "type": "uint256"
        },
        {
          "internalType": "string",
          "name": "name",
          "type": "string"
        },
        {
          "internalType": "string",
          "name": "picture",
          "type": "string"
        },
        {
          "internalType": "string",
          "name": "breed",
          "type": "string"
        },
        {
          "internalType": "string",
          "name": "location",
          "type": "string"
        },
        {
          "internalType": "address",
          "name": "owner",
          "type": "address"
        },
        {
          "internalType": "uint256",
          "name": "price",
          "type": "uint256"
        }
      ],
      "name": "updatePet",
      "outputs": [
        {
          "internalType": "uint256",
          "name": "",
          "type": "uint256"
        },
        {
          "internalType": "string",
          "name": "",
          "type": "string"
        }
      ],
      "payable": false,
      "stateMutability": "nonpayable",
      "type": "function"
    },
    {
      "constant": false,
      "inputs": [
        {
          "internalType": "uint256",
          "name": "id",
          "type": "uint256"
        },
        {
          "internalType": "address",
          "name": "owner",
          "type": "address"
        },
        {
          "internalType": "address",
          "name": "newOwner",
          "type": "address"
        }
      ],
      "name": "TransferPet",
      "outputs": [
        {
          "internalType": "uint256",
          "name": "",
          "type": "uint256"
        },
        {
          "internalType": "string",
          "name": "",
          "type": "string"
        }
      ],
      "payable": true,
      "stateMutability": "payable",
      "type": "function"
    },
    {
      "constant": false,
      "inputs": [
        {
          "internalType": "uint256",
          "name": "petId",
          "type": "uint256"
        }
      ],
      "name": "purchase",
      "outputs": [
        {
          "internalType": "uint256",
          "name": "",
          "type": "uint256"
        }
      ],
      "payable": true,
      "stateMutability": "payable",
      "type": "function"
    },
    {
      "constant": true,
      "inputs": [],
      "name": "getPurchasers",
      "outputs": [
        {
          "internalType": "address[25]",
          "name": "",
          "type": "address[25]"
        }
      ],
      "payable": false,
      "stateMutability": "view",
      "type": "function"
    }
  ],
  "bytecode": "0x608060405260016000556103e860025534801561001b57600080fd5b5061274a8061002b6000396000f3fe6080604052600436106100a75760003560e01c80636d71ad38116100645780636d71ad38146101ea5780638f8fb47a14610215578063af8ce89314610240578063cfb38dd914610271578063cfb869bf146102ae578063efef39a1146102f2576100a7565b80630409eb85146100ac57806310c2416e146100d757806312923b651461011557806337bb96f71461015257806359d551941461017b57806361b8ce8c146101bf575b600080fd5b3480156100b857600080fd5b506100c1610322565b6040516100ce91906122d4565b60405180910390f35b3480156100e357600080fd5b506100fe60048036036100f99190810190611d8b565b6103a3565b60405161010c9291906123ef565b60405180910390f35b34801561012157600080fd5b5061013c60048036036101379190810190611cd7565b61067c565b60405161014991906122b9565b60405180910390f35b34801561015e57600080fd5b5061017960048036036101749190810190611c00565b6106af565b005b34801561018757600080fd5b506101a2600480360361019d9190810190611cd7565b610881565b6040516101b698979695949392919061241f565b60405180910390f35b3480156101cb57600080fd5b506101d4610cd5565b6040516101e191906123d4565b60405180910390f35b3480156101f657600080fd5b506101ff610cdb565b60405161020c91906122f0565b60405180910390f35b34801561022157600080fd5b5061022a611083565b60405161023791906123d4565b60405180910390f35b61025a60048036036102559190810190611d3c565b611090565b6040516102689291906123ef565b60405180910390f35b34801561027d57600080fd5b5061029860048036036102939190810190611d00565b611382565b6040516102a59190612312565b60405180910390f35b3480156102ba57600080fd5b506102d560048036036102d09190810190611cd7565b61157b565b6040516102e99897969594939291906124b9565b60405180910390f35b61030c60048036036103079190810190611cd7565b611870565b60405161031991906123d4565b60405180910390f35b61032a6119f2565b6003601980602002604051908101604052809291908260198015610399576020028201915b8160009054906101000a900473ffffffffffffffffffffffffffffffffffffffff1673ffffffffffffffffffffffffffffffffffffffff168152602001906001019080831161034f575b5050505050905090565b6000606060008090505b60018054905081101561063457600181815481106103c757fe5b9060005260206000209060080201600001548a1480156104505750600181815481106103ef57fe5b906000526020600020906008020160060160009054906101000a900473ffffffffffffffffffffffffffffffffffffffff1673ffffffffffffffffffffffffffffffffffffffff168573ffffffffffffffffffffffffffffffffffffffff16145b1561062757886001828154811061046357fe5b90600052602060002090600802016001019080519060200190610487929190611a15565b50876001828154811061049657fe5b906000526020600020906008020160020190805190602001906104ba929190611a15565b5086600182815481106104c957fe5b906000526020600020906008020160030190805190602001906104ed929190611a15565b5085600182815481106104fc57fe5b90600052602060002090600802016004019080519060200190610520929190611a15565b50836001828154811061052f57fe5b9060005260206000209060080201600701819055506001818154811061055157fe5b9060005260206000209060080201600001546001828154811061057057fe5b9060005260206000209060080201600101808054600181600116156101000203166002900480601f0160208091040260200160405190810160405280929190818152602001828054600181600116156101000203166002900480156106165780601f106105eb57610100808354040283529160200191610616565b820191906000526020600020905b8154815290600101906020018083116105f957829003601f168201915b505050505090509250925050610670565b80806001019150506103ad565b506040517f08c379a000000000000000000000000000000000000000000000000000000000815260040161066790612374565b60405180910390fd5b97509795505050505050565b6003816019811061068957fe5b016000915054906101000a900473ffffffffffffffffffffffffffffffffffffffff1681565b60003390506000339050600160405180610100016040528060005481526020018981526020018881526020018781526020018681526020018473ffffffffffffffffffffffffffffffffffffffff1681526020018373ffffffffffffffffffffffffffffffffffffffff1681526020018581525090806001815401808255809150509060018203906000526020600020906008020160009091929091909150600082015181600001556020820151816001019080519060200190610774929190611a95565b506040820151816002019080519060200190610791929190611a95565b5060608201518160030190805190602001906107ae929190611a95565b5060808201518160040190805190602001906107cb929190611a95565b5060a08201518160050160006101000a81548173ffffffffffffffffffffffffffffffffffffffff021916908373ffffffffffffffffffffffffffffffffffffffff16021790555060c08201518160060160006101000a81548173ffffffffffffffffffffffffffffffffffffffff021916908373ffffffffffffffffffffffffffffffffffffffff16021790555060e08201518160070155505050600080815480929190600101919050555050505050505050565b6000606080606080600080600080600090505b600180549050811015610c8e57600181815481106108ae57fe5b9060005260206000209060080201600001548a1415610c8157600181815481106108d457fe5b906000526020600020906008020160000154600182815481106108f357fe5b90600052602060002090600802016001016001838154811061091157fe5b90600052602060002090600802016002016001848154811061092f57fe5b90600052602060002090600802016003016001858154811061094d57fe5b90600052602060002090600802016004016001868154811061096b57fe5b906000526020600020906008020160050160009054906101000a900473ffffffffffffffffffffffffffffffffffffffff16600187815481106109aa57fe5b906000526020600020906008020160060160009054906101000a900473ffffffffffffffffffffffffffffffffffffffff16600188815481106109e957fe5b906000526020600020906008020160070154868054600181600116156101000203166002900480601f016020809104026020016040519081016040528092919081815260200182805460018160011615610100020316600290048015610a905780601f10610a6557610100808354040283529160200191610a90565b820191906000526020600020905b815481529060010190602001808311610a7357829003601f168201915b50505050509650858054600181600116156101000203166002900480601f016020809104026020016040519081016040528092919081815260200182805460018160011615610100020316600290048015610b2c5780601f10610b0157610100808354040283529160200191610b2c565b820191906000526020600020905b815481529060010190602001808311610b0f57829003601f168201915b50505050509550848054600181600116156101000203166002900480601f016020809104026020016040519081016040528092919081815260200182805460018160011615610100020316600290048015610bc85780601f10610b9d57610100808354040283529160200191610bc8565b820191906000526020600020905b815481529060010190602001808311610bab57829003601f168201915b50505050509450838054600181600116156101000203166002900480601f016020809104026020016040519081016040528092919081815260200182805460018160011615610100020316600290048015610c645780601f10610c3957610100808354040283529160200191610c64565b820191906000526020600020905b815481529060010190602001808311610c4757829003601f168201915b505050505093509850985098509850985098509850985050610cca565b8080600101915050610894565b506040517f08c379a0000000000000000000000000000000000000000000000000000000008152600401610cc190612354565b60405180910390fd5b919395975091939597565b60005481565b60606001805480602002602001604051908101604052809291908181526020016000905b8282101561107a57838290600052602060002090600802016040518061010001604052908160008201548152602001600182018054600181600116156101000203166002900480601f016020809104026020016040519081016040528092919081815260200182805460018160011615610100020316600290048015610dc65780601f10610d9b57610100808354040283529160200191610dc6565b820191906000526020600020905b815481529060010190602001808311610da957829003601f168201915b50505050508152602001600282018054600181600116156101000203166002900480601f016020809104026020016040519081016040528092919081815260200182805460018160011615610100020316600290048015610e685780601f10610e3d57610100808354040283529160200191610e68565b820191906000526020600020905b815481529060010190602001808311610e4b57829003601f168201915b50505050508152602001600382018054600181600116156101000203166002900480601f016020809104026020016040519081016040528092919081815260200182805460018160011615610100020316600290048015610f0a5780601f10610edf57610100808354040283529160200191610f0a565b820191906000526020600020905b815481529060010190602001808311610eed57829003601f168201915b50505050508152602001600482018054600181600116156101000203166002900480601f016020809104026020016040519081016040528092919081815260200182805460018160011615610100020316600290048015610fac5780601f10610f8157610100808354040283529160200191610fac565b820191906000526020600020905b815481529060010190602001808311610f8f57829003601f168201915b505050505081526020016005820160009054906101000a900473ffffffffffffffffffffffffffffffffffffffff1673ffffffffffffffffffffffffffffffffffffffff1673ffffffffffffffffffffffffffffffffffffffff1681526020016006820160009054906101000a900473ffffffffffffffffffffffffffffffffffffffff1673ffffffffffffffffffffffffffffffffffffffff1673ffffffffffffffffffffffffffffffffffffffff16815260200160078201548152505081526020019060010190610cff565b50505050905090565b6000600180549050905090565b6000606060025434146110d8576040517f08c379a00000000000000000000000000000000000000000000000000000000081526004016110cf90612334565b60405180910390fd5b60008090505b60018054905081101561133e57600181815481106110f857fe5b9060005260206000209060080201600001548614801561118157506001818154811061112057fe5b906000526020600020906008020160060160009054906101000a900473ffffffffffffffffffffffffffffffffffffffff1673ffffffffffffffffffffffffffffffffffffffff168573ffffffffffffffffffffffffffffffffffffffff16145b1561133157836001828154811061119457fe5b906000526020600020906008020160060160006101000a81548173ffffffffffffffffffffffffffffffffffffffff021916908373ffffffffffffffffffffffffffffffffffffffff160217905550836003600183815481106111f357fe5b9060005260206000209060080201600001546019811061120f57fe5b0160006101000a81548173ffffffffffffffffffffffffffffffffffffffff021916908373ffffffffffffffffffffffffffffffffffffffff1602179055506001818154811061125b57fe5b9060005260206000209060080201600001546001828154811061127a57fe5b9060005260206000209060080201600101808054600181600116156101000203166002900480601f0160208091040260200160405190810160405280929190818152602001828054600181600116156101000203166002900480156113205780601f106112f557610100808354040283529160200191611320565b820191906000526020600020905b81548152906001019060200180831161130357829003601f168201915b50505050509050925092505061137a565b80806001019150506110de565b506040517f08c379a000000000000000000000000000000000000000000000000000000000815260040161137190612374565b60405180910390fd5b935093915050565b606060008090505b60018054905081101561153957600181815481106113a457fe5b9060005260206000209060080201600001548414801561142d5750600181815481106113cc57fe5b906000526020600020906008020160060160009054906101000a900473ffffffffffffffffffffffffffffffffffffffff1673ffffffffffffffffffffffffffffffffffffffff168373ffffffffffffffffffffffffffffffffffffffff16145b1561152c576001818154811061143f57fe5b90600052602060002090600802016000808201600090556001820160006114669190611b15565b6002820160006114769190611b15565b6003820160006114869190611b15565b6004820160006114969190611b15565b6005820160006101000a81549073ffffffffffffffffffffffffffffffffffffffff02191690556006820160006101000a81549073ffffffffffffffffffffffffffffffffffffffff0219169055600782016000905550506040518060400160405280601581526020017f50657420686173206265656e2064656c69737465640000000000000000000000815250915050611575565b808060010191505061138a565b506040517f08c379a000000000000000000000000000000000000000000000000000000000815260040161156c906123b4565b60405180910390fd5b92915050565b6001818154811061158857fe5b9060005260206000209060080201600091509050806000015490806001018054600181600116156101000203166002900480601f01602080910402602001604051908101604052809291908181526020018280546001816001161561010002031660029004801561163a5780601f1061160f5761010080835404028352916020019161163a565b820191906000526020600020905b81548152906001019060200180831161161d57829003601f168201915b505050505090806002018054600181600116156101000203166002900480601f0160208091040260200160405190810160405280929190818152602001828054600181600116156101000203166002900480156116d85780601f106116ad576101008083540402835291602001916116d8565b820191906000526020600020905b8154815290600101906020018083116116bb57829003601f168201915b505050505090806003018054600181600116156101000203166002900480601f0160208091040260200160405190810160405280929190818152602001828054600181600116156101000203166002900480156117765780601f1061174b57610100808354040283529160200191611776565b820191906000526020600020905b81548152906001019060200180831161175957829003601f168201915b505050505090806004018054600181600116156101000203166002900480601f0160208091040260200160405190810160405280929190818152602001828054600181600116156101000203166002900480156118145780601f106117e957610100808354040283529160200191611814565b820191906000526020600020905b8154815290600101906020018083116117f757829003601f168201915b5050505050908060050160009054906101000a900473ffffffffffffffffffffffffffffffffffffffff16908060060160009054906101000a900473ffffffffffffffffffffffffffffffffffffffff16908060070154905088565b6000808210158015611883575060198211155b61188c57600080fd5b600080600090505b60018054905081101561195957600181815481106118ae57fe5b90600052602060002090600802016000015484141561194c57600033905080600183815481106118da57fe5b906000526020600020906008020160060160006101000a81548173ffffffffffffffffffffffffffffffffffffffff021916908373ffffffffffffffffffffffffffffffffffffffff1602179055506001828154811061193657fe5b9060005260206000209060080201600701549250505b8080600101915050611894565b50336003846019811061196857fe5b0160006101000a81548173ffffffffffffffffffffffffffffffffffffffff021916908373ffffffffffffffffffffffffffffffffffffffff1602179055508034146119e9576040517f08c379a00000000000000000000000000000000000000000000000000000000081526004016119e090612394565b60405180910390fd5b82915050919050565b604051806103200160405280601990602082028038833980820191505090505090565b828054600181600116156101000203166002900490600052602060002090601f016020900481019282601f10611a5657805160ff1916838001178555611a84565b82800160010185558215611a84579182015b82811115611a83578251825591602001919060010190611a68565b5b509050611a919190611b5d565b5090565b828054600181600116156101000203166002900490600052602060002090601f016020900481019282601f10611ad657805160ff1916838001178555611b04565b82800160010185558215611b04579182015b82811115611b03578251825591602001919060010190611ae8565b5b509050611b119190611b5d565b5090565b50805460018160011615610100020316600290046000825580601f10611b3b5750611b5a565b601f016020900490600052602060002090810190611b599190611b5d565b5b50565b611b7f91905b80821115611b7b576000816000905550600101611b63565b5090565b90565b600081359050611b91816126d9565b92915050565b600082601f830112611ba857600080fd5b8135611bbb611bb682612580565b612553565b91508082526020830160208301858383011115611bd757600080fd5b611be2838284612686565b50505092915050565b600081359050611bfa816126f0565b92915050565b600080600080600060a08688031215611c1857600080fd5b600086013567ffffffffffffffff811115611c3257600080fd5b611c3e88828901611b97565b955050602086013567ffffffffffffffff811115611c5b57600080fd5b611c6788828901611b97565b945050604086013567ffffffffffffffff811115611c8457600080fd5b611c9088828901611b97565b935050606086013567ffffffffffffffff811115611cad57600080fd5b611cb988828901611b97565b9250506080611cca88828901611beb565b9150509295509295909350565b600060208284031215611ce957600080fd5b6000611cf784828501611beb565b91505092915050565b60008060408385031215611d1357600080fd5b6000611d2185828601611beb565b9250506020611d3285828601611b82565b9150509250929050565b600080600060608486031215611d5157600080fd5b6000611d5f86828701611beb565b9350506020611d7086828701611b82565b9250506040611d8186828701611b82565b9150509250925092565b600080600080600080600060e0888a031215611da657600080fd5b6000611db48a828b01611beb565b975050602088013567ffffffffffffffff811115611dd157600080fd5b611ddd8a828b01611b97565b965050604088013567ffffffffffffffff811115611dfa57600080fd5b611e068a828b01611b97565b955050606088013567ffffffffffffffff811115611e2357600080fd5b611e2f8a828b01611b97565b945050608088013567ffffffffffffffff811115611e4c57600080fd5b611e588a828b01611b97565b93505060a0611e698a828b01611b82565b92505060c0611e7a8a828b01611beb565b91505092959891949750929550565b6000611e958383611eb5565b60208301905092915050565b6000611ead83836121d6565b905092915050565b611ebe8161264a565b82525050565b611ecd8161264a565b82525050565b611edc816125c6565b611ee6818461260c565b9250611ef1826125ac565b8060005b83811015611f22578151611f098782611e89565b9650611f14836125f2565b925050600181019050611ef5565b505050505050565b6000611f35826125d1565b611f3f8185612617565b935083602082028501611f51856125b6565b8060005b85811015611f8d5784840389528151611f6e8582611ea1565b9450611f79836125ff565b925060208a01995050600181019050611f55565b50829750879550505050505092915050565b6000611faa826125e7565b611fb48185612639565b9350611fc4818560208601612695565b611fcd816126c8565b840191505092915050565b6000611fe3826125dc565b611fed8185612628565b9350611ffd818560208601612695565b612006816126c8565b840191505092915050565b600061201c826125dc565b6120268185612639565b9350612036818560208601612695565b61203f816126c8565b840191505092915050565b6000612057602583612639565b91507f5072696365206d75737420626520657175616c20746f207472616e736665722060008301527f70726963650000000000000000000000000000000000000000000000000000006020830152604082019050919050565b60006120bd600d83612639565b91507f506574206e6f7420666f756e64000000000000000000000000000000000000006000830152602082019050919050565b60006120fd600c83612639565b91507f4e6f2070657420666f756e6400000000000000000000000000000000000000006000830152602082019050919050565b600061213d602283612639565b91507f5472616e73666572206f6e6c792074686520726571756972656420616d6d6f7560008301527f6e740000000000000000000000000000000000000000000000000000000000006020830152604082019050919050565b60006121a3600583612639565b91507f4572726f720000000000000000000000000000000000000000000000000000006000830152602082019050919050565b6000610100830160008301516121ef600086018261229b565b50602083015184820360208601526122078282611fd8565b915050604083015184820360408601526122218282611fd8565b9150506060830151848203606086015261223b8282611fd8565b915050608083015184820360808601526122558282611fd8565b91505060a083015161226a60a0860182611eb5565b5060c083015161227d60c0860182611eb5565b5060e083015161229060e086018261229b565b508091505092915050565b6122a48161267c565b82525050565b6122b38161267c565b82525050565b60006020820190506122ce6000830184611ec4565b92915050565b6000610320820190506122ea6000830184611ed3565b92915050565b6000602082019050818103600083015261230a8184611f2a565b905092915050565b6000602082019050818103600083015261232c8184611f9f565b905092915050565b6000602082019050818103600083015261234d8161204a565b9050919050565b6000602082019050818103600083015261236d816120b0565b9050919050565b6000602082019050818103600083015261238d816120f0565b9050919050565b600060208201905081810360008301526123ad81612130565b9050919050565b600060208201905081810360008301526123cd81612196565b9050919050565b60006020820190506123e960008301846122aa565b92915050565b600060408201905061240460008301856122aa565b81810360208301526124168184611f9f565b90509392505050565b600061010082019050612435600083018b6122aa565b8181036020830152612447818a611f9f565b9050818103604083015261245b8189611f9f565b9050818103606083015261246f8188611f9f565b905081810360808301526124838187611f9f565b905061249260a0830186611ec4565b61249f60c0830185611ec4565b6124ac60e08301846122aa565b9998505050505050505050565b6000610100820190506124cf600083018b6122aa565b81810360208301526124e1818a612011565b905081810360408301526124f58189612011565b905081810360608301526125098188612011565b9050818103608083015261251d8187612011565b905061252c60a0830186611ec4565b61253960c0830185611ec4565b61254660e08301846122aa565b9998505050505050505050565b6000604051905081810181811067ffffffffffffffff8211171561257657600080fd5b8060405250919050565b600067ffffffffffffffff82111561259757600080fd5b601f19601f8301169050602081019050919050565b6000819050919050565b6000819050602082019050919050565b600060199050919050565b600081519050919050565b600081519050919050565b600081519050919050565b6000602082019050919050565b6000602082019050919050565b600081905092915050565b600082825260208201905092915050565b600082825260208201905092915050565b600082825260208201905092915050565b60006126558261265c565b9050919050565b600073ffffffffffffffffffffffffffffffffffffffff82169050919050565b6000819050919050565b82818337600083830152505050565b60005b838110156126b3578082015181840152602081019050612698565b838111156126c2576000848401525b50505050565b6000601f19601f8301169050919050565b6126e28161264a565b81146126ed57600080fd5b50565b6126f98161267c565b811461270457600080fd5b5056fea365627a7a7231582095424aa8418a16211f13621197e36ac657dac435d9c187a2140a7e757caa89596c6578706572696d656e74616cf564736f6c63430005100040",
  "source": "// SPDX-License-Identifier: MIT\npragma solidity ^0.5.16;\npragma experimental ABIEncoderV2;\n\ncontract Crud {\n\n    struct Pet {\n        uint Id;\n        string name;\n        string picture;\n        string breed;\n        string location;\n        address seller;\n        address owner;\n        uint256 price;\n    }\n    uint public nextId = 1;\n    Pet[] public pets;\n    uint256 transferPrice = 1000 wei;\n\n    function createPetListing(\n        string memory name,\n        string memory picture,\n        string memory breed,\n        string memory location,\n        uint256 price\n    ) public {\n        address seller = msg.sender;\n        address owner = msg.sender;\n        pets.push(Pet(nextId, name, picture, breed, location,seller, owner, price));\n        nextId ++;\n    }\n\n    function getPet(uint id) public view returns(uint, string memory, string memory, string memory, string memory, address, address, uint256) {\n        for(uint i = 0; i < pets.length; i++) {\n            if(id == pets[i].Id){\n                return (pets[i].Id, pets[i].name, pets[i].picture, pets[i].breed, pets[i].location, pets[i].seller, pets[i].owner, pets[i].price);\n            }\n        }\n        revert(\"Pet not found\");\n    }\n\n    function getPets() public view returns(Pet[] memory) {\n        return (pets);\n    }\n\n    function getPetsLength() public view returns(uint) {\n        return (pets.length);\n    }\n\n\n    function deletePet(uint id, address owner) public returns(string memory) {\n        for(uint i = 0; i < pets.length; i++) {\n            if(id == pets[i].Id && owner == pets[i].owner){\n                delete(pets[i]);\n                return (\"Pet has been delisted\");\n            }\n        }\n        revert(\"Error\");\n    }\n\n    function updatePet(uint id, string memory name, string memory picture, string memory breed, string memory location, address owner, uint256 price) public returns(uint, string memory) {\n\n        for(uint i = 0; i < pets.length; i++) {\n            if(id == pets[i].Id && owner == pets[i].owner){\n                pets[i].name = name;\n                pets[i].picture = picture;\n                pets[i].breed = breed;\n                pets[i].location = location;\n                pets[i].price = price;\n                return (pets[i].Id, pets[i].name);\n            }\n        }\n\n\n        revert(\"No pet found\");\n    }\n\n    function TransferPet(uint id, address owner, address newOwner) public payable returns(uint, string memory) {\n        require(msg.value == transferPrice, \"Price must be equal to transfer price\");\n        for(uint i = 0; i < pets.length; i++) {\n            if(id == pets[i].Id && owner == pets[i].owner){\n                pets[i].owner = newOwner;\n                purchasers[pets[i].Id] = newOwner;\n                return (pets[i].Id, pets[i].name);\n            }\n        }\n\n\n        revert(\"No pet found\");\n    }\n\n\n    address[25] public purchasers;\n\n    function purchase(uint petId) public payable returns (uint) {\n        require(petId >= 0 && petId <= 25);\n        uint256 transactionPrice;\n        for(uint i = 0; i < pets.length; i++) {\n            if(petId == pets[i].Id){\n                address owner = msg.sender;\n                pets[i].owner = owner;\n                transactionPrice = pets[i].price;\n            }\n        }\n\n        purchasers[petId] = msg.sender;\n\n        require(msg.value == transactionPrice, \"Transfer only the required ammount\");\n        return petId;\n    }\n\n    function getPurchasers() public view returns (address[25] memory) {\n        return purchasers;\n    }\n\n}",
  "sourcePath": "/home/kali/Desktop/Projects/CatShop/contracts/Crud.sol",
  "compiler": {
    "name": "solc",
    "version": "0.5.16+commit.9c3226ce.Emscripten.clang"
  },
  "schemaVersion": "3.4.3",
  "updatedAt": "2021-12-20T20:42:31.753Z",
  "networkType": "ethereum",
  "devdoc": {
    "methods": {}
  },
  "userdoc": {
    "methods": {}
  }
}